S01100002E2E2F50726F746575732E73313966
S32D0000C000000000205DC2000011C3000017C300001DC3000023C3000029C3000000000000000000000000000073
S32D0000C028000000002FC3000035C30000000000003BC3000041C30000CDCC0000D9CC0000E5CC0000F1CC000052
S32D0000C050FDCC000009CD000015CD000021CD00002DCD000039CD000045CD000051CD00005DCD000069CD0000C3
S32D0000C07875CD000081CD00008DCD000099CD0000A5CD0000B1CD0000BDCD0000C9CD0000D5CD0000E1CD0000EA
S32D0000C0A0EDCD0000F9CD000005CE000011CE00001DCE000029CE000035CE000041CE00004DCE000059CE00000A
S32D0000C0C865CE000071CE00007DCE000089CE000095CE0000A1CE0000ADCE0000B9CE0000C5CE0000D1CE000030
S32D0000C0F0DDCE0000A5140100E9CE0000F5CE000001CF00000DCF000019CF000025CF000031CF00003DCF0000AF
S32D0000C11849CF000055CF000061CF00006DCF000079CF000085CF000091CF00009DCF0000A9CF0000B5CF0000ED
S32D0000C140C1CF0000CDCF0000D9CF0000E5CF000029F70000F1CF0000FDCF000009D0000015D0000021D00000EE
S32D0000C1682DD0000039D0000045D0000051D000005DD0000069D0000075D0000081D000008DD0000099D00000AB
S32D0000C190A5D00000B1D00000BDD0000041F4000009F30000A5F3000051CA0000E1F40000C9D00000D5D0000007
S32D0000C1B8E1D00000F037020000000020D0160000F03702000000FF1F00000000D0160020900400000000FF1F7A
S32D0000C1E00000000080B489B000AFF860B9607A60BB68FB61FB68BB6100237B617A697B689A420BD2BA69131DFB
S32D0000C208BB61FB69191DF96112681A607B6904337B61EFE700BF2437BD4680BC704780B485B000AF786039609E
S32D0000C2307B68FB600023BB60BA683B689A4208D2FB681A1DFA6000221A60BB680433BB60F2E700BF1437BD46FE
S32D0000C25880BC704780B586B000AF72B6234B4CF220521A80214B4DF628121A80204B4FF4E9721A801F4B7B615F
S32D0000C2807B691F4A934214D27B691A1D7A611B683B617B691A1D7A611B68FB607B691A1D7A611B68BB60BA68E9
S32D0000C2A8F9683869FFF79AFFE6E77B69134A93420ED27B691A1D7A611B68FB607B691A1D7A611B68BB60B9688B
S32D0000C2D0F868FFF7A8FFECE70B4B7B600B4A7B681A600EF0A1FF62B600F07AFC00F02EFBFEE700BF0E20054041
S32D0000C2F800200540BCC10000D4C10000E4C1000008ED00E000C0000080B400AFFEE780B400AFFEE780B400AFF4
S32D0000C320FEE780B400AFFEE780B400AFFEE780B400AFFEE780B400AFFEE780B400AFFEE780B400AFFEE780B426
S32D0000C34800AFFEE7FFFFFFFFFFFFFFFFFFFFFFFFFFFFFFFFFFFFFFFFFFFFFFFFFFFFFFFFFFFFFFFFFFFFFFFF57
S32D0000C370FFFFFFFFFFFFFFFFFFFFFFFFFFFFFFFFFFFFFFFFFFFFFFFFFFFFFFFFFFFFFFFFFFFFFFFFFFFFFFFFC7
S32D0000C398FFFFFFFFFFFFFFFFFFFFFFFFFFFFFFFFFFFFFFFFFFFFFFFFFFFFFFFFFFFFFFFFFFFFFFFFFFFFFFFF9F
S32D0000C3C0FFFFFFFFFFFFFFFFFFFFFFFFFFFFFFFFFFFFFFFFFFFFFFFFFFFFFFFFFFFFFFFFFFFFFFFFFFFFFFFF77
S32D0000C3E8FFFFFFFFFFFFFFFFFFFFFFFFFFFFFFFFFFFFFFFFFFFFFFFFFFFFFFFFFFFFFFFFFFFFFFFFFEFFFFFF50
S32D0000C44010B5054C237833B9044B13B10448AFF300800123237010BDD016002000000000D835020008B5034B0C
S32D0000C4681BB103490348AFF3008008BD00000000D4160020D835020080B58AB000AFF860B9607A6007F11003CF
S32D0000C4900C4AB968184600F091FA07F11003184605F0E2FA014600237A68074804F04BF807F11003184605F0C4
S32D0000C4B889FA00BF2837BD4680BD00BF08190200E41900200000000090B589B000AFF860C7E9002346A3D3E979
S32D0000C4E00023D7E900010CF0CDFE02460B461046194643A3D3E900230CF0EEFF02460B46104619460DF058F9EB
S32D0000C50803467B614249434804F035F87969414804F083F8404803F03DF8404803F03AF8F8680DF097FA03463B
S32D0000C53019463D4800F05CFEF8680CF039FE32A3D3E900230CF09EFE02460B46104619460DF07AF9034619466A
S32D0000C558344800F049FE4FF000024FF00003C7E906232E4803F004F804462B4803F000F80346234418460CF08F
S32D0000C58017FE4FF000024FF080430CF0A5FF02460B46104619460DF00FF903463B613A697B699A421DDC02F00F
S32D0000C5A80BFD02460B4601210C46D7E906010DF0D7F80346002B01D100231C46E3B2002BCFD002F0F9FC10A3F9
S32D0000C5D0D3E900230CF0A0FC02460B46C7E90623C3E700BF104800F0C1FD104800F0BEFD00BF2437BD4690BD78
S32D0000C5F80000000000E073400A68226C786A1F40AE47E17A14AEEF3F9A9999999999B93F1C190200E41900201E
S32D0000C620EC160020F0160020F4160020FC160020F0B58DB000AFF860C7E9002307F12803184605F045F907F1E0
S32D0000C648280207F110034649184605F089FA07F11003002219464348FFF70EFF07F11003184605F0AFF907F112
S32D0000C6702803184605F02EF94FF000023C4BD7E900010CF029FF02460B461046194632A3D3E900230CF0F6FD59
S32D0000C69802460B46104619460DF08AF80346FB62324802F077FF324802F074FFFB685B4218460DF0CFF90346D4
S32D0000C6C019462E4800F094FDF8680CF071FD24A3D3E900230CF0D6FD02460B46104619460DF0B2F8034619461A
S32D0000C6E8254800F081FD224802F042FF04461F4802F03EFF0346234418460CF055FD4FF000024FF080430CF031
S32D0000C710E3FE02460B4614461D46F86A0CF048FD02460B4601210E46204629460DF01CF80346002B01D10023C3
S32D0000C7381E46F3B2002B00D0D5E70E4800F012FD0D4800F00FFD00BF3437BD46F0BD00BF0000000000C06B4069
S32D0000C760AE47E17A14AEEF3F301902000417002000805640EC160020F0160020F4160020FC160020000000002B
S32D0000C788F0B58DB000AFF860C7E9002307F12803184605F099F807F1280207F110034649184605F0DDF907F1E3
S32D0000C7B01003002219464348FFF762FE07F11003184605F003F907F12803184605F082F84FF000023C4BD7E914
S32D0000C7D800010CF07DFE02460B461046194632A3D3E900230CF04AFD02460B46104619460CF0DEFF0346FB62A9
S32D0000C800324802F0CBFE324802F0C8FEF8680DF025F9034619462F4800F0EAFCF8680CF0C7FC25A3D3E900236D
S32D0000C8280CF02CFD02460B46104619460DF008F803461946264800F0D7FC234802F098FE0446204802F094FE70
S32D0000C8500346234418460CF0ABFC4FF000024FF080430CF039FE02460B4614461D46F86A0CF09EFC02460B46AC
S32D0000C87801210E46204629460CF072FF0346002B01D100231E46F3B2002B00D0D5E70F4800F068FC0E4800F0C0
S32D0000C8A065FC00BF3437BD46F0BD00BFAFF300800000000000C06B40AE47E17A14AEEFBF3C1902000417002091
S32D0000C8C800805640EC160020F0160020F4160020FC1600200000000080B500AF4FF00002154B1920FFF7F0FDE7
S32D0000C8F00FA3D3E900232820FFF7EAFD4FF00002104B1920FFF794FE0BA3D3E900231920FFF7DEFD4FF000022F
S32D0000C9180A4B1920FFF734FF4FF00002084B1920FFF7D2FD00BF80BD90C2F5285C4F35409A9999999999214025
S32D0000C94000002C400080564000003E4080B582B000AF0021164803F022FC6FF07F41144803F06EFC1349124895
S32D0000C96803F048FE1249104803F044FE3A463B1D19460D4803F0D4FC034683F00103DBB2002B00D0F2E73A4690
S32D0000C9903B1D1946064803F0C7FC0346002B00D0F5E7FFF79DFF002318460837BD4680BDE41900206C19020068
S32D0000C9B87C19020080B584B000AFF860B9607A60B968F86805F086F87968F86805F030F800BFF8681037BD469C
S32D0000C9E080BD000080B582B000AF786039607B68012B16D13B684FF6FF72934211D100210A4802F00BFB0121D2
S32D0000CA08094802F007FB094A0021094800F06CFB064A0121074800F067FB00BF0837BD4680BD00BFEC1600206D
S32D0000CA30F016002000001041F4160020FC16002080B500AF4FF6FF710120FFF7CBFF80BD80B500AF0F4BD3F845
S32D0000CA58A03003F48053002B14BF01230023DBB2002B10D0094BD3F8A030084A23F48053C2F8A030064804F042
S32D0000CA8095FE064B1B68054A23F40053136000BF80BD00BF00C004406C1A0020C0F00F4080B400AF124B4FF40E
S32D0000CAA880725A63114B5B69104A43F4005353610E4B1B680D4A43F4005313600A4B0C4A1A630C4BD3F88831C6
S32D0000CAD00A4A43F08063C2F88831084B9B68074A43F08063936000BFBD4680BC704700BF00C00440C0F00F4034
S32D0000CAF803010A0000E100E080B400AF334B00225A70324B98221A70304B9B79DBB203F01003002B14BF0123EF
S32D0000CB200023DBB2002B00D0F2E72A4B9B79DBB29B08DBB203F00303022B14BF01230023DBB2002B00D0F0E77E
S32D0000CB48224B18221A71214B00225A71204B03F580531A461F4B53641C4B54225A711B4B9B79DBB203F02003B8
S32D0000CB70002B0CBF01230023DBB2002B00D0F2E7144B9B79DBB203F04003002B0CBF01230023DBB2002B00D0FE
S32D0000CB98F2E70E4B1B78DBB20C4A03F03F03DBB213700A4B9B79DBB29B08DBB203F00303032B14BF012300231B
S32D0000CBC0DBB2002B00D0F0E700231846BD4680BC704700BF00400640007004400000130180B500AF314B03F50C
S32D0000CBE880539B6B2F4A43F4785302F580529363FFF752FFFFF780FF2B4B58221A602A4B1B684FF47A7202FBC2
S32D0000CC1003F3284A1360274B1B681A46234B03F580535B6C1B0E03F00F030133B2FBF3F31A46214B1A601D4B23
S32D0000CC3803F58053DB6B1B4A43F0225302F58052D363184B03F580531B6B164A43F0006302F580521363174B66
S32D0000CC604FF480721A61642002F05AF8134B5B69124A23F010035361104B00221A600F4B10225A610E4803F04F
S32D0000CC882DF902F001FD02F05FFD0C4802F0A6F80B4804F0DBFD4FF4FA6002F051F900BF80BD00BF00700440CF
S32D0000CCB0301900202C1900203419002000D00340E419002028190020DC1A002080B500AFFFF739FB00BF80BD6A
S32D0000CCD880B500AFFFF733FB00BF80BD80B500AFFFF72DFB00BF80BD80B500AFFFF727FB00BF80BD80B500AF50
S32D0000CD00FFF721FB00BF80BD80B500AFFFF71BFB00BF80BD80B500AFFFF715FB00BF80BD80B500AFFFF70FFB41
S32D0000CD2800BF80BD80B500AFFFF709FB00BF80BD80B500AFFFF703FB00BF80BD80B500AFFFF7FDFA00BF80BD66
S32D0000CD5080B500AFFFF7F7FA00BF80BD80B500AFFFF7F1FA00BF80BD80B500AFFFF7EBFA00BF80BD80B500AF8E
S32D0000CD78FFF7E5FA00BF80BD80B500AFFFF7DFFA00BF80BD80B500AFFFF7D9FA00BF80BD80B500AFFFF7D3FABD
S32D0000CDA000BF80BD80B500AFFFF7CDFA00BF80BD80B500AFFFF7C7FA00BF80BD80B500AFFFF7C1FA00BF80BDA4
S32D0000CDC880B500AFFFF7BBFA00BF80BD80B500AFFFF7B5FA00BF80BD80B500AFFFF7AFFA00BF80BD80B500AFCA
S32D0000CDF0FFF7A9FA00BF80BD80B500AFFFF7A3FA00BF80BD80B500AFFFF79DFA00BF80BD80B500AFFFF797FA35
S32D0000CE1800BF80BD80B500AFFFF791FA00BF80BD80B500AFFFF78BFA00BF80BD80B500AFFFF785FA00BF80BDDF
S32D0000CE4080B500AFFFF77FFA00BF80BD80B500AFFFF779FA00BF80BD80B500AFFFF773FA00BF80BD80B500AF05
S32D0000CE68FFF76DFA00BF80BD80B500AFFFF767FA00BF80BD80B500AFFFF761FA00BF80BD80B500AFFFF75BFAAC
S32D0000CE9000BF80BD80B500AFFFF755FA00BF80BD80B500AFFFF74FFA00BF80BD80B500AFFFF749FA00BF80BD1B
S32D0000CEB880B500AFFFF743FA00BF80BD80B500AFFFF73DFA00BF80BD80B500AFFFF737FA00BF80BD80B500AF41
S32D0000CEE0FFF731FA00BF80BD80B500AFFFF72BFA00BF80BD80B500AFFFF725FA00BF80BD80B500AFFFF71FFA24
S32D0000CF0800BF80BD80B500AFFFF719FA00BF80BD80B500AFFFF713FA00BF80BD80B500AFFFF70DFA00BF80BD56
S32D0000CF3080B500AFFFF707FA00BF80BD80B500AFFFF701FA00BF80BD80B500AFFFF7FBF900BF80BD80B500AF7D
S32D0000CF58FFF7F5F900BF80BD80B500AFFFF7EFF900BF80BD80B500AFFFF7E9F900BF80BD80B500AFFFF7E3F99F
S32D0000CF8000BF80BD80B500AFFFF7DDF900BF80BD80B500AFFFF7D7F900BF80BD80B500AFFFF7D1F900BF80BD95
S32D0000CFA880B500AFFFF7CBF900BF80BD80B500AFFFF7C5F900BF80BD80B500AFFFF7BFF900BF80BD80B500AFBB
S32D0000CFD0FFF7B9F900BF80BD80B500AFFFF7B3F900BF80BD80B500AFFFF7ADF900BF80BD80B500AFFFF7A7F917
S32D0000CFF800BF80BD80B500AFFFF7A1F900BF80BD80B500AFFFF79BF900BF80BD80B500AFFFF795F900BF80BDD1
S32D0000D02080B500AFFFF78FF900BF80BD80B500AFFFF789F900BF80BD80B500AFFFF783F900BF80BD80B500AFF6
S32D0000D048FFF77DF900BF80BD80B500AFFFF777F900BF80BD80B500AFFFF771F900BF80BD80B500AFFFF76BF98E
S32D0000D07000BF80BD80B500AFFFF765F900BF80BD80B500AFFFF75FF900BF80BD80B500AFFFF759F900BF80BD0C
S32D0000D09880B500AFFFF753F900BF80BD80B500AFFFF74DF900BF80BD80B500AFFFF747F900BF80BD80B500AF32
S32D0000D0C0FFF741F900BF80BD80B500AFFFF73BF900BF80BD80B500AFFFF735F900BF80BD80B500AFFFF72FF906
S32D0000D0E800BF80BD0000000080B584B000AFF8600B467A60FB72FB68FA7A1A71FB6800225A71174978680CF028
S32D0000D110B5FE0346002B02D0134B7B600AE04FF07E5178680CF096FE0346002B02D04FF07E537B6078680CF04A
S32D0000D1384DF809A3D3E900230CF0A0F802460B46104619460CF07CFB0246FB681A60FB6818461037BD4680BD37
S32D0000D160ABAAAAAAAAAA20400000404180B582B000AF78607B685B79002B09D07B6800225A717B6819791E2394
S32D0000D1880022034801F064FE00BF0837BD4680BD2819002080B584B000AF786039603B687F2B02DD7F23FB7355
S32D0000D1B008E03B6813F1800F02DA8023FB7301E03B68FB737B685B79FA7B9A4209D07B68FA7B5A717B681979DB
S32D0000D1D8FA7B1E23034801F03BFE00BF1037BD4680BD00BF28190020B0B584B000AF78603960374938680CF0C3
S32D0000D2001FFE0346002B02D0334B3B6008E0334938680CF033FE0346002B01D02F4B3B6038680BF0D7FF04463E
S32D0000D2280D467B681B6818460BF0D0FF4FF00002294B0CF04DF902460B46204629460CF01DF802460B46104692
S32D0000D25019460CF0F9FA03463B604FF0000138680CF002FE0346002B10D038680BF0B2FF17A3D3E900230CF06D
S32D0000D27805F802460B46104619460CF099FA0346FB6018E038680BF0A1FF4FF00002134B0BF0F4FF02460B46B1
S32D0000D2A0104619464FF000020D4B0CF015F902460B46104619460CF07FFA0346FB60F9687868FFF76BFF00BF41
S32D0000D2C81037BD46B0BD00BF52B81E85EB51F43F0000C8C20000C842000059400000604080B483B000AF03467A
S32D0000D2F00A46FB711346BB71BB79002B03D1134B00221A7002E0114B01221A703823FB710E4B1A78FB7913432B
S32D0000D318FB710D4B9B78DBB20B4A43F01003DBB29370094B9B78DBB2074A43F02003DBB29370054AFB791371E6
S32D0000D34000BF0C37BD4680BC704700BF051700200060064080B483B000AF01237B607B68312B04DC00BF7B6850
S32D0000D36801337B60F7E700BF0C37BD4680BC704780B582B000AF03460A46FB711346BB71134B1B7800211846A2
S32D0000D390FFF7AAFF00F024F8104AFB79137100F01FF80E4ABB79137100F01AF80B4B9B78DBB20A4A23F02003D9
S32D0000D3B8DBB29370074B9B78DBB2064A23F01003DBB29370FFF7C2FF00BF0837BD4680BD0617002000600640E7
S32D0000D3E080B483B000AF174B1B78002B24D100237B60154BDB78DBB203F00203002B0CBF01230023DBB2002BC9
S32D0000D4080DD07B6842F21072934203DD0B4B01221A7004E07B6801337B6000BFE5E7084BDB78DBB2064A43F0B1
S32D0000D4300203DBB2D37000E000BF0C37BD4680BC704700BF071700200060064080B582B000AF0346FB71FB793F
S32D0000D458184600F05FF800BF0837BD4680BD80B582B000AF03460A46FB711346BB7100F035F8FB795B00DBB2AA
S32D0000D4801846FFF7E3FFBB791846FFF7DFFF00F037F800BF0837BD4680BD80B500AFFF2000F03CF803461846B7
S32D0000D4A880BD80B584B000AF0346FB7100F016F8FB795B005BB243F001035BB2DBB21846FFF7C0FFFFF7E5FFB4
S32D0000D4D00346FB7300F014F8FB7B18461037BD4680BD000080B400AF044B9B68034A43F48013936000BFBD461F
S32D0000D4F880BC704740F00F4080B400AF044B5B68034A43F48013536000BFBD4680BC704740F00F4080B485B038
S32D0000D52000AF0346FB710023BB73164BDB6A03F00043012B0CBF01230023DBB2002B03D0FB7B0133FB73F0E794
S32D0000D5480E4BDB6A0D4A43F00043D3620B4AFB7953630A4BDB6A03F40033002B0CBF01230023DBB2002B00D00D
S32D0000D570F3E7044B9B6BBB73BB7B18461437BD4680BC704700C00A4080B582B000AF204B03F580531B6B1E4A17
S32D0000D59843F4805302F5805213631C4B4FF480721A651B4B5B691A4A43F480135361FFF7A3FF164B4FF4007247
S32D0000D5C05A65144B4FF400729A65124B4FF40072DA65124B124A1A60104B124ADA6000237B607B68092B06DCFF
S32D0000D5E8FF20FFF72FFF7B6801337B60F5E704A1D1E9000101F0BAFC00BF0837BD4680BD9A9999999999B93F30
S32D0000D6100070044000A0044040F00F4000C00A40000C00800500003E90B486B000AFF860B9607A60FB68534A88
S32D0000D63893420AD1524B03F580535B6B504A43F4806302F58052536345E0FB684D4A93420AD14B4B03F5805383
S32D0000D6605B6B494A43F4006302F58052536336E0FB68474A93420AD1434B03F580535B6B414A43F4805302F5C5
S32D0000D6888052536327E0FB68404A93420AD13C4B03F580535B6B3A4A43F4005302F58052536318E0FB683A4AC4
S32D0000D6B093420AD1344B03F580539B6A324A43F4806302F58052936209E02F4B03F580539B6A2D4A43F40063B5
S32D0000D6D802F580529362FB68DB78DBB223F00C03DAB2FB68DA70FB6800229A70BB684FF47A7203FB02F27B6812
S32D0000D7001B0192FBF3F39CB2FB681B78DBB223F01F03FB75230A9BB2DBB203F01F03DAB2FB7D1343DAB2FB6891
S32D0000D7281A70E2B2FB685A70BB684FF4FA4203FB02F27B681B0192FBF3F39AB263019BB2D31A9CB2FB689B7AD2
S32D0000D750DBB223F01F03FB75E3B203F01F03DAB2FB7D1343DAB2FB689A72FB68DB78DBB243F00C03DAB2FB6806
S32D0000D778DA7000BF1837BD4690BC704700A006400070044000B0064000C0064000D0064000A00E4080B483B024
S32D0000D7A000AF78607B681B79DBB203F02003002B0CBF01230023DBB2002B00D0F2E77B68DB79DBB218460C37B7
S32D0000D7C8BD4680BC704780B483B000AF78600B46FB707B681B79DBB25BB2DB43DBB2DB09DBB2002B00D0F4E790
S32D0000D7F07B68FA78DA7100BF0C37BD4680BC704780B487B000AFF860B9607A60FB687B617B685A1E7A60002B6F
S32D0000D81814BF01230023DBB2002B06D07B695A1C7A61BA68D2B21A70EEE700BF1C37BD4680BC704780B584B08F
S32D0000D84000AF786039607B681B6BFB60FA683B689A4252D07B681B79002B35D07B6858787B6803F13401012349
S32D0000D868FA6801F0F7F80346002B14BF01230023DBB2002B01D001233CE07B6800221A717B685A6A7B681B6A5A
S32D0000D8901344FA689A4217D27B68DB78FB72FB7A012B11D97B681B6AFA681344FB607B6858787B6803F1340183
S32D0000D8B80123FA6801F0CEF8FB7A013BFB72EAE73B68002B15D07B6858787B6803F1340101233A6800F0DAFF15
S32D0000D8E00346002B14BF01230023DBB2002B01D0012303E07B683A681A63002318461037BD4680BD80B584B089
S32D0000D90800AF786000217868FFF794FF0346FB73FB7B002B40F093807B681B78032B7DD17B685B79002B79D028
S32D0000D9307B6800221A637B6834334FF4007200211846FFF75DFF7B68552283F832227B68AA2283F833227B68EC
S32D0000D958522283F834207B68522283F835207B68612283F836207B68412283F837207B68722283F818227B68D9
S32D0000D980722283F819227B68412283F81A227B68612283F81B227B681B69DAB27B6883F81C227B681B699BB2D1
S32D0000D9A81B0A9BB2DAB27B6883F81D227B681B691B0CDAB27B6883F81E227B681B691B0EDAB27B6883F81F2243
S32D0000D9D07B68DB68DAB27B6883F820227B68DB689BB21B0A9BB2DAB27B6883F821227B68DB681B0CDAB27B6809
S32D0000D9F883F822227B68DB681B0EDAB27B6883F823227B6858787B6803F134017B685A69012301F01FF87B6850
S32D0000DA2000225A717B685B7800220021184601F0E1F80346002B14BF01230023DBB2002B01D00123FB73FB7BAB
S32D0000DA4818461037BD4680BD80B582B000AF78600B467B807B68002B08D07B681B78002B04D07B68DB887A88EE
S32D0000DA709A4201D0092311E07B685B78184601F03BF9034603F00103002B14BF01230023DBB2002B01D0032351
S32D0000DA9800E0002318460837BD4680BD80B586B000AF78607B681A687B689B8819461046FFF7CAFF0346FB75F6
S32D0000DAC0FB7D002B40F0AC807B689B7903F02003002B00F0A5807B689B7903F04003002B1BD07B681B68587873
S32D0000DAE87B6803F128017B689A69012300F0B2FF0346002B14BF01230023DBB2002B01D001238AE07B689B79C9
S32D0000DB1023F04003DAB27B689A717B681A687B68DB6919461046FFF789FE0346FB75FB7D002B75D17B681B6A4F
S32D0000DB383B613B690B331A783B690B3342F02002D2B21A707B68DA683B691C33D2B21A707B68DB689BB21B0AAD
S32D0000DB609AB23B691D33D2B21A707B68DB681A0C3B691E33D2B21A707B68DB681A0E3B691F33D2B21A707B68C5
S32D0000DB881A693B691A33D2B21A707B681B699BB21B0A9AB23B691B33D2B21A707B681B691A0C3B691433D2B2CC
S32D0000DBB01A707B681B691B0C9BB21B0A9AB23B691533D2B21A700023FB603B691633FA68D2B21A70FB689BB2EC
S32D0000DBD81B0A9AB23B691733D2B21A70FB681A0C3B691833D2B21A70FB681A0E3B691933D2B21A707B689B79AC
S32D0000DC0023F02003DAB27B689A717B681B6801221A717B681B681846FFF774FE0346FB75FB7D18461837BD4625
S32D0000DC2880BD80B584B000AF78607868FFF736FF0346FB73FB7B002B02D17B6800221A60FB7B18461037BD46CE
S32D0000DC5080BD000080B588B000AF7860396080233B610F23FB604FF0FF337B610223FB61FB69B3F5807F23D83C
S32D0000DC780123BB61BB69102B1AD8FB69BA6902FB03F33A6803FB02F27B68D31ABB60BB68002B09DBBB687A69BC
S32D0000DCA09A4205D9BB687B61FB693B61BB69FB60BB690133BB61E1E7FB695B00FB61D7E71D4BDB6A1C4A23F0E3
S32D0000DCC80803D3621A4BDB6A23F47F2323F47F63BB613B695B081B029AB2FB68013B1B01DBB21A43BB691343E7
S32D0000DCF0114A43F46023D3620F4B5B6A03F00803002B0CBF01230023DBB2002B03D00A2001F01AF9F0E7084B7F
S32D0000DD18DB6A074A43F00803D362054B1B6B044A43F48013136300BF2037BD4680BD00BF00100B4080B582B099
S32D0000DD4000AF786039607B6800221A60414B424ADA62404BDB6A03F08073002B14BF01230023DBB2002B00D03F
S32D0000DD68F3E73A4B0022C3F8C020384B4FF481325A60364B28229A62344B4FF001125A643B689B683349184668
S32D0000DD90FFF760FF2F4B5B6A03F00303002B14BF01230023DBB2002B00D0F3E72C4B40F243421A602A4B40F2E2
S32D0000DDB843425A60284B4FF488629A60264B40F24342DA60244B40F243421A61224B40F243425A61214B03F51E
S32D0000DDE080531B6B1F4A43F4003302F580521363184B4FF6FF721A63164B1B4A5A63154BDB6A144A43F00063F8
S32D0000DE08D362124BDB6A03F00063002B14BF01230023DBB2002B00D0F3E70C4B5B6A03F48033002B14BF012330
S32D0000DE300023DBB2002B02D07B6801221A60054B1B6B044A43F080031363002318460837BD4680BD00100B40EC
S32D0000DE580080000160CC050000D0044000700440B3007F0080B400AF064B5A6A40F207331340002B14BF012317
S32D0000DE800023DBB21846BD4680BC704700100B4080B485B000AF7860074B1B6B7A681340FB60FB68002B00D15E
S32D0000DEA8F6E7FB6818461437BD4680BC704700BF00100B4080B584B000AF78607B681B7803F03F03764A52F8AE
S32D0000DED02330FB60FB68002B05D17B681B78002B01D00123DCE0714B1B6B704A43F0800313636E4B5B6A03F027
S32D0000DEF80103002B14BF01230023DBB2002B00D0F3E7684A7B685B689360FB6823F44003FB607B685B789B0598
S32D0000DF2003F44003FA681343FB607B685B78022B03D1FB6843F40013FB607B685B78042B16D1FB6803F440332E
S32D0000DF48B3F5003F08D1FB6823F44033FB60FB6843F44033FB6007E0FB6823F44033FB60FB6843F40033FB60E4
S32D0000DF704E4B5B684D4A9BB253607B68DB68002B2AD0FB6803F44033B3F5403F03D0FB6843F40013FB607B6893
S32D0000DF981B7A002B03D0FB6843F01003FB607B68DB68012B03D9FB6843F02003FB607B68DB68B3F1FF3F0BD09F
S32D0000DFC03A4B5A687B68DB681B04384913434B60FB6843F00203FB60344B00221A60334AFB68D3603248FFF791
S32D0000DFE853FF0346012B14BF01230023DBB2002B09D02C4B1B6B2B4A43F4702343F001031363012348E0274BF2
S32D0000E0101B6B03F08003002B14BF01230023DBB2002B07D0214B1B6B204A43F001131363012335E01D4B1B6BD2
S32D0000E03803F48033002B14BF01230023DBB2002B08D0184B1B6B174A43F0011313634FF0FF3321E0FB6803F468
S32D0000E0604033002B15D0114B1A697B681A61FB6803F44033B3F5803F0BD10C4B5A697B685A610A4B9A697B68CF
S32D0000E0889A61084BDA697B68DA61064B1B6B054A43F001031363002318461037BD4680BD9C19020000100B40CE
S32D0000E0B001000E0080B592B000AF7860396000237B643B68BB63994B7B637B6B002B02D140F601235FE3964BB6
S32D0000E0D83B633B6B002B02D140F60B2357E33B6B1B68FB62FB6A002B02D140F60B234EE37B6841F20932934296
S32D0000E10000F23F837B68B3F5985F08D87B68032B00F01A837B68092B00F0098331E37B68A3F59853013B082BC1
S32D0000E12800F22B8301A252F823F000BF59E1000045E40000A1E600005BE4000099E40000BFE5000007E6000033
S32D0000E15049E5000063E500007649786BFFF7EEFD78647B6C002B40F01083002387F84330002387F82B300023C2
S32D0000E17887F82A30002387F82930002387F84230002387F8283000233B7200237B720023FB6000233B74002344
S32D0000E1A07B6107F108031846FFF788FE0346002B14BF01230023DBB2002B02D001237B64E8E240F24C4000F005
S32D0000E1C8BFFE08233B7200237B724FF4D573FB6000233B7400237B6107F108031846FFF769FEF863FB6B002B23
S32D0000E1F009D1BA69FB689A4202D001237B64C9E2012387F84230012387F8283097F82830002B00F0A5803723B4
S32D0000E2183B7200237B720023FB6000233B7400237B6107F108031846FFF744FEF863FB6B002B02D001237B6472
S32D0000E240A8E269233B7200237B720023FB6000233B7400237B6107F108031846FFF72EFE0346002B14BF0123A0
S32D0000E2680023DBB2002B02D001237B648EE2BB6903F44013002B6FD00023FB630A2000F05FFEFB6B0133FB63A0
S32D0000E29037233B7200237B720023FB6000233B7400237B6107F108031846FFF707FE0346002B14BF0123002310
S32D0000E2B8DBB2002B02D001237B6428E069233B7200237B7297F84230002B02D0184BFB6002E04FF44013FB60CB
S32D0000E2E000233B7400237B6107F108031846FFF7E5FD0346002B14BF01230023DBB2002B02D001237B6406E005
S32D0000E308BB69002B03DBFB6B632B00D8B6E77B6C002B40F03882FB6B632B0BD9002387F8423019E01C1700201D
S32D0000E330201900209019020000003040012387F8433097F84230002B0AD0002387F84230BB6903F08043002B16
S32D0000E35802D0012387F8423097F82A30002B02D07B6B07221A6097F82930002B02D07B6B08221A6097F82B30E8
S32D0000E380002B02D07B6B04221A6097F84330002B09D07B6B02221A6097F84230002B02D07B6B03221A6097F850
S32D0000E3A82B30002B0DD097F84330002B09D07B6B05221A6097F84230002B02D07B6B06221A60924B00221A6058
S32D0000E3D0904B00225A608F4B00229A608D4B0022DA608C4B00221A618A4B00225A61FB6A9A68FB6A5B6819462A
S32D0000E3F81046FFF72BFC854B40F243421A60834B40F243425A60814B4FF488629A607F4B40F24342DA607D4BCE
S32D0000E42040F243421A617B4B40F243425A617A4B03F580531B6B784A43F4003302F580521363A7E1B86BFFF742
S32D0000E44839FDF863FB6B002B00F09F8102237B649BE1BB6B002B02D10C237B6496E16D4BDB6A1B0A5B0003F4D7
S32D0000E470FF73FB63694BDB6A1B0903F00F035A1CFB6B02FB03F3FB63FB6A9A68FB6BB2FBF3F2BB6B1A607DE102
S32D0000E498BB6B002B02D10C237B6477E1BB6B1B68002B02D10C237B6470E1FFF7DBFC0346002B0CBF0123002373
S32D0000E4C0DBB2002B3CD0534B00221A60514B00225A60504B00229A604E4B0022DA604D4B00221A614B4B00221F
S32D0000E4E85A61FB6A9A68BB6B1B6819461046FFF7ADFB464B40F243421A60444B40F243425A60424B4FF488626C
S32D0000E5109A60404B40F24342DA603E4B40F243421A613C4B40F243425A613B4B03F580531B6B394A43F40033EF
S32D0000E53802F58052136329E140F60A237B6425E1BB6B002B02D10C237B641FE1314B5B68C3F30C02BB6B1A604F
S32D0000E56018E1BB6B002B02D10C237B6412E1FFF77DFC0346002B0CBF01230023DBB2002B19D0BB6B1B68B3F588
S32D0000E588805F02D30C237B6400E1224B5B68214A23F4FF5323F01F0353601E4B5A68BB6B1B68C3F30C031B49D9
S32D0000E5B013434B60EEE040F60A237B64EAE0BB6B002B02D10C237B64E4E0144B9B6A5B0803F00303FB63FB6BE8
S32D0000E5D8002B03D1BB6B00221A60D7E0FB6B012B03D1BB6B01221A60D0E0FB6B102B03D1BB6B02221A60C9E0E2
S32D0000E60005237B64C6E0BB6B002B09D10C237B64C0E000BF00D004400070044000100B40FFF724FC0346002BFA
S32D0000E6280CBF01230023DBB2002B31D0BB6B1B68002B0AD1584B9B6A574A23F006039362554B554A9B6A9362B7
S32D0000E650A0E0BB6B1B68012B0CD1514B9B6A504A23F0060393624E4B9B6A4D4A43F0020393628FE0BB6B1B68A4
S32D0000E678022B0AD1484B9B6A474A23F006039362454B454A9B6A936280E005237B647DE040F60A237B6479E0BA
S32D0000E6A0BB6B002B02D10C237B6473E03C4BDB6A3B4A43F00063D362394BDB6A03F00063002B14BF0123002347
S32D0000E6C8DBB2002B00D0F3E7334B1B6B03F08003002B14BF01230023DBB2002B08D02E4B1B6B2D4A43F0800347
S32D0000E6F013637B6B00221A60294B5B6A03F48033002B14BF01230023DBB2002B07D07B6B1B68002B06D17B6BFC
S32D0000E71801221A6002E07B6B00221A607B6B1A68BB6B1A6032E0BB6B1C221A60BB6B043304221A60BB6B08337C
S32D0000E7404FF41E721A6025E00220FFF7A1FB144B1B6B03F4E003002B14BF01230023DBB2002B07D00E4B1B6B33
S32D0000E7680D4A43F4E003136304237B640A4B1B6B094A43F03203136308E040F609237B6404E000BF02E000BF1D
S32D0000E79000E000BF7B6C18464837BD4680BD00BF00100B4080B489B000AF786039607B687B61364B3B613B6991
S32D0000E7B8002B01D100235FE03B691B68022B0BD03B691B68032B07D03B691B68072B03D03B691B68082B0BD117
S32D0000E7E02B4B5B6A03F00403002B14BF01230023DBB2002B00D0F3E73B68FB61FB69002B3DD0FB69B3F5007F09
S32D0000E80828BF4FF40073FB60FB6803339B08BB61BB69002B2AD01C4B1B6B03F4E003002B14BF01230023DBB2B0
S32D0000E830002B09D0164B1B6B154A43F4E00343F02003136300231BE0114B5B6A03F40063002B0CBF01230023B4
S32D0000E858DBB2002B00D0F3E70B497B691A1D7A610A6A1A60BB69013BBB61D1E7FA69FB68D31AFB61BEE70123EC
S32D0000E88018462437BD4680BC704700BF1C17002000100B4080B58EB000AFB9607A601A460346FB731346BB739B
S32D0000E8A8414B7B63FB7B002B02D1BB7B002B01D1042375E03D4B1B78DBB203F00103002B14BF01230023DBB244
S32D0000E8D0002B01D0032367E0BB68002B01D1002362E07B6B1B7B002B02D17B685B027B60BB7B012B28D1112308
S32D0000E8F83B7500237B757B68BB6101233B77BB7B3B6207F11403194641F20230FFF7CEFB0346002B0CBF012392
S32D0000E9200023DBB2002B38D04FF40071B868FFF739FF0346002B14BF01230023DBB2002B2BD00023BB7328E04A
S32D0000E94812233B7500237B757B68BB6101233B77BB7B3B6207F11403194641F20230FFF7A5FB0346002B0CBF59
S32D0000E97001230023DBB2002B0FD0BB7B5B021946B868FFF70FFF0346002B14BF01230023DBB2002B01D000234B
S32D0000E998BB73BB7B002B01D0012300E0002300BF18463837BD4680BD081700200000002080B487B000AF7860AD
S32D0000E9C039607B68FB603B687B617B69002B3DD07B69B3F5007F28BF4FF400733B617A693B69D31A7B613B697F
S32D0000E9E803339B083B613B69002BEAD0184B1B6B03F4E003002B14BF01230023DBB2002B0AD0134B1B6B124A29
S32D0000EA1043F4E00343F0100313634FF0FF3316E00D4B5B6A03F48063002B0CBF01230023DBB2002B00D0F3E705
S32D0000EA38FB681A1DFA60064A1B6813623B69013B3B61D0E7012318461C37BD4680BC704700100B4080B58EB0A8
S32D0000EA6000AFB9607A601A460346FB731346BB735D4B7B63FB7B002B02D1BB7B002B01D10423ADE0594B1B7830
S32D0000EA88DBB203F00103002B14BF01230023DBB2002B01D003239FE0524B1B78DBB203F00403002B14BF012390
S32D0000EAB00023DBB2002B01D0022391E0BB68002B01D100238CE07B6B1B7B002B02D17B685B027B60BB7B012B50
S32D0000EAD828D118233B7500237B757B68BB6100233B77BB7B3B6207F11403194641F20230FFF7DCFA0346002B5F
S32D0000EB000CBF01230023DBB2002B38D04FF40071B868FFF751FF0346002B14BF01230023DBB2002B2BD0002397
S32D0000EB28BB7328E019233B7500237B757B68BB6100233B77BB7B3B6207F11403194641F20230FFF7B3FA034624
S32D0000EB50002B0CBF01230023DBB2002B0FD0BB7B5B021946B868FFF727FF0346002B14BF01230023DBB2002B4F
S32D0000EB7801D00023BB730D233B7500237B757B6B1B69BB6100233B7700233B6207F11403194641F20230FFF776
S32D0000EBA089FA0346002B14BF01230023DBB2002B01D0012314E07A6A0D4B1340002B01D001230DE07B6A03F41D
S32D0000EBC8F853B3F5106F00D0D5E7BB7B002B01D0012300E0002300BF18463837BD4680BD08170020000000209D
S32D0000EBF00880D9FF80B58CB000AF03463A60FB710B46BB713A4BBB62FB79002B01D0042369E0012387F82F3027
S32D0000EC18364B1B78DBB203F00103002B14BF01230023DBB2002B01D0032358E0BB79032B50D801A252F823F080
S32D0000EC4051EC000059EC000069EC000079EC0000002387F82F3044E0BB6A9A683B681A60002387F82F303CE0E4
S32D0000EC683B684FF400721A80002387F82F3034E009233B7200237B72BB6A1B69FB6000233B7400237B6107F1C1
S32D0000EC900803194641F20230FFF70CFA0346002B14BF01230023DBB2002B01D001231AE07B6A03F44003002B0C
S32D0000ECB80CD13B6A9B0C03F07F035A1C7B6A1B0A03F00303013B9A403B681A60002387F82F3002E0042387F85B
S32D0000ECE02F3097F82F3018463037BD4680BD00BF081700200000002080B483B000AF0346FB71FB79002B01D05B
S32D0000ED08012302E0034B1B78DBB218460C37BD4680BC70470000002080B483B000AF7860164B03F580539B6B92
S32D0000ED30144A43F0010302F580529363124A7B689360114B05225A600F4B1B680E4A43F0010313600C4B1B6839
S32D0000ED5803F08003002B0CBF01230023DBB2002B00D0F3E7064B1B68054A23F00103136000BF0C37BD4680BC8A
S32D0000ED80704700BF007004400000044080B582B000AF786039607B68012B07D13B684FF6FF72934202D103483D
S32D0000EDA800F00EF800BF0837BD4680BD2819002080B500AF4FF6FF710120FFF7E3FF80BD80B483B000AF7860EB
S32D0000EDD07B6800221A707B6818460C37BD4680BC7047000080B582B000AF78607B681B7883F00103DBB2002B79
S32D0000EDF821D0134B03F580531A464FF400639362104B4FF440721A620E4B4FF440725A620D4B1B68DA0F1344E7
S32D0000EE205B104FF4614219460A48FEF7FDFB642000F08AF87B6801221A70012300E0002318460837BD4680BD4B
S32D0000EE480070044000D004402C19002000B00E4080B582B000AF7860084611461A460346FB700B46BB701346F5
S32D0000EE707B707F210E48FEF7AAFC08210C48FEF7A6FCFB7819460A48FEF7A1FCBB7819460748FEF79CFC7B78CD
S32D0000EE9819460548FEF797FCFF210348FEF793FC00BF0837BD4680BD00B00E4080B487B000AFF860B9607A6088
S32D0000EEC0FB681F4AA2FB03239B09BA6813447B61FB681B4AA2FB031292094FF47A7101FB02F29B1AFB60FB68F6
S32D0000EEE8DB03154AA2FB03239B097A6813443B613B69DB0B7A6913447B613B69C3F30E033B610E4B1B687A691D
S32D0000EF109A4209D80B4B1B687A699A4206D1094B5B683A699A4201D9012300E00023002B00D0EAE700BF1C3732
S32D0000EF38BD4680BC704700BFD34D621000D0034080B584B000AF7860074B1B68FB60064B5B68BB607B68BA68FD
S32D0000EF60F9681846FFF7A6FF00BF1037BD4680BD00D0034080B584B000AFC7E900010E4B1B68FB600C4B5B68B6
S32D0000EF88BB604FF000020B4BD7E900010AF076F902460B46104619460AF032FC0346BA68F9681846FFF782FF68
S32D0000EFB000BF1037BD4680BD00D0034000408F4080B584B000AF134B1B68FB60114B5B68BB60F8680AF0DCF80F
S32D0000EFD802460B46C7E90023B8680AF0D5F84FF000020B4B0AF074FA02460B46D7E9000109F08EFF02460B4640
S32D0000F000C7E90023D7E90023104619461037BD4680BD00BF00D003400000E04080B584B000AF78600B46FB7052
S32D0000F0280B23FB73FA7BFB781946786800F094F87B6818461037BD4680BD000080B485B000AF78607B68103B95
S32D0000F050002B00DA1F335B11FB60FB68022B53D0FB68022B75DCFB68002B03D0FB68012B25D06EE0394BD3F85E
S32D0000F07880217B68103B594203F01F0301F01F0158BF4B42012101FA03F332491343C1F88031304B1A687B6808
S32D0000F0A0103B594203F01F0301F01F0158BF4B42012101FA03F3294913430B6049E0274BD3F884217B68103B13
S32D0000F0C8594203F01F0301F01F0158BF4B42012101FA03F31F491343C1F884311D4B5A687B68103B594203F090
S32D0000F0F01F0301F01F0158BF4B42012101FA03F3164913434B6024E0144BD3F888217B68103B594203F01F03F3
S32D0000F11801F01F0158BF4B42012101FA03F30D491343C1F888310B4B9A687B68103B594203F01F0301F01F019C
S32D0000F14058BF4B42012101FA03F3044913438B6000BF00BF1437BD4680BC704700E100E080B584B000AF7860EC
S32D0000F1680B46FB701346BB707B68FA781A70BB78FB737B681B781A46574B9B5C042B00F2A68001A252F823F003
S32D0000F190A5F10000F1F100003DF20000D5F2000089F20000FB7B1B0403F470234D497A68127810464C4A52F811
S32D0000F1B8202043F4897343F0010341F82230494B5A697B681B781946454B53F8213003F01F03012101FA03F374
S32D0000F1E0DB43424913404B616720FFF72BFF72E0FB7B1B0403F470233D497A6812781046394A52F8202043F4B5
S32D0000F208897343F0010341F82230384B5A697B681B781946324B53F8213003F01F03012101FA03F3DB43314926
S32D0000F23013404B616820FFF705FF4CE0FB7B1B0403F470232C497A6812781046264A52F8202043F4897343F04D
S32D0000F258010341F82230274B5A697B681B7819461F4B53F8213003F01F03012101FA03F3DB43204913404B613B
S32D0000F2806920FFF7DFFE26E0FB7B1B0403F470231B497A6812781046134A52F8202043F4897343F0010341F82F
S32D0000F2A82230164B5A697B681B7819460C4B53F8213003F01F03012101FA03F3DB430F4913404B616B20FFF7DC
S32D0000F2D0B9FE00E000BF00BF1037BD4680BD00BF9C1A020000900440E01A020000F00F4000A0044040F00F408B
S32D0000F2F800B0044080F00F4000D0044000F10F40B0B48BB000AF224B3C1D1D460FCD0FC495E80F0084E80F00B4
S32D0000F32000237B627B6A072B30DC1C4BD3F8A0207B6A9B0028333B4453F8243C012101FA03F31340002B14BF41
S32D0000F34801230023DBB2002B18D0134A7B6A52F823305A1C10497B6A41F823200D4BD3F8A0207B6A9B002833E3
S32D0000F3703B4453F8243C012101FA03F307491340C1F8A0307B6A01337B62CBE700BF2C37BD46B0BC704700BF57
S32D0000F398E41B020000A0044058190020B0B489B000AF224B3C1D1D460FCD0FC495E8030084E803000023FB613F
S32D0000F3C0FB69052B30DC1C4BD3F8A020FB699B0020333B4453F81C3C012101FA03F31340002B14BF012300236E
S32D0000F3E8DBB2002B18D0FB690833124A52F823200132104941F823200D4BD3F8A020FB699B0020333B4453F8C8
S32D0000F4101C3C012101FA03F307491340C1F8A030FB690133FB61CBE700BF2437BD46B0BC704700BF041C020070
S32D0000F43800B0044058190020B0B48DB000AF234B3C461D460FCD0FC40FCD0FC495E8070084E807000023FB62A9
S32D0000F460FB6A0A2B30DC1C4BD3F8A020FB6A9B0030333B4453F8303C012101FA03F31340002B14BF01230023A2
S32D0000F488DBB2002B18D0FB6A0E33124A52F823200132104941F823200D4BD3F8A020FB6A9B0030333B4453F80F
S32D0000F4B0303C012101FA03F307491340C1F8A030FB6A0133FB62CBE700BF3437BD46B0BC704700BF1C1C020092
S32D0000F4D80090044058190020B0B487B000AF214B3C461D460FCD0FC42B68236000237B617B69042B30DC1C4BBC
S32D0000F500D3F8A0207B699B0018333B4453F8183C012101FA03F31340002B14BF01230023DBB2002B18D07B693B
S32D0000F5281933124A52F823200132104941F823200D4BD3F8A0207B699B0018333B4453F8183C012101FA03F39A
S32D0000F55007491340C1F8A0307B6901337B61CBE700BF1C37BD46B0BC704700BF481C020000D0044058190020B9
S32D0000F57880B483B000AF78607B681B781A46044B53F8223018460C37BD4680BC704700BF5819002080B483B067
S32D0000F5A000AF78607B681B781946044B002243F8212000BF0C37BD4680BC70475819002080B483B000AF78607D
S32D0000F5C80B46FB707B68FA781A707B6818460C37BD4680BC7047000080B586B000AF78607B681B781A46234BCA
S32D0000F5F053F822303B617B681B781A46204B9B5CFB733B69DBB203F01F03DAB21D4B1A723B69DBB203F01F0302
S32D0000F618DAB21A4B5A72FB7B002B13D11749184800F0CEF9164B1B6803F08003802B14BF01230023DBB2002B34
S32D0000F64000D0F3E7104B1B697B6112E00D490F4800F0BAF90D4B1B6803F08003802B14BF01230023DBB2002B27
S32D0000F66800D0F3E7074B1B697B617B6918461837BD4680BD601B0200BC1A02004819002000B0034000B00B4083
S32D0000F69098B500AF204B5C221A701F4B10225A701D4B41F234225A801B4B45F278629A80194B10229A71184B17
S32D0000F6B80722DA71164B4FF4C022DA60144B1F221A72134B1F225A721149124800F078F90F49114800F074F936
S32D0000F6E00F4800F0D2F80D4800F0CFF80A490C4800F06AF90849094800F066F9094A064B14460FCB84E80F00A1
S32D0000F708064B5C221A70054B0422DA7100BF98BD3819002000B0034000B00B404819002080B500AF064B1B680D
S32D0000F7300133054A136000F03DF8044B0122C3F80C2100BF80BD00BFDC1900200070034080B500AF0C4B012255
S32D0000F7581A600C4800F01AF8094B0322C3F80821094BD3F88831084A43F01003C2F88831054B9B68044A43F09F
S32D0000F7801003936000BF80BD00700340A086010000E100E080B483B000AF7860044A7B68C2F8003100BF0C37B2
S32D0000F7A8BD4680BC704700BF0070034080B584B000AF174B1B68FB60FB68002B24D0FB685B78FB71FB689B68E9
S32D0000F7D0184600F023F80346BB71BB79002B13D0FB685B68012B0FDDFB689B681B69BB60BB68002B08D0BB685F
S32D0000F7F85B685A1CBB685A60BB681B69BB60F3E7FB68DB68FB60D7E700BF1037BD4680BDD819002080B584B0B2
S32D0000F82000AF78607868FFF7DBFEF8607B689B695B78FB72FB7A002B0FD17B68DB68FA689A420ADD7B689B6953
S32D0000F84801225A707B685B685A1C7B685A60012313E0FB7A012B0FD17B689B68FA689A420ADA7B689B69002243
S32D0000F8705A707B685B685A1C7B685A60012300E0002318461037BD4680BD80B485B000AF78607B681B6A23F070
S32D0000F89840027B681A627B685B6A23F00B027B685A627B685B6A43F007027B685A627B685B6A43F080027B6877
S32D0000F8C05A627B681B6803F08003002B0CBF01230023DBB2002B00D0F3E77B685B6A03F04003402B0CBF0123AB
S32D0000F8E80023DBB2002B01D0012364E00023FB817B68DB6CFB817B689B6C9AB2FB891344FB817B685B6C9AB216
S32D0000F910FB891344FB817B681B6C9AB2FB891344FB817B68DB6B9AB2FB891344FB817B689B6B9AB2FB89134489
S32D0000F938FB81FB895B08FB81FB896FEA43436FEA5343FB81FA897B68DA620023FB817B68DB6EFB817B689B6E1F
S32D0000F9609AB2FB891344FB817B685B6E9AB2FB891344FB817B681B6E9AB2FB891344FB817B68DB6D9AB2FB897D
S32D0000F9881344FB817B689B6D9AB2FB891344FB81FB895B08FB81FB896FEA43436FEA5343FB81FA897B681A63DC
S32D0000F9B07B685B6A23F080027B685A62002318461437BD4680BC704780B483B000AF786039603B681B781A466E
S32D0000F9D87B689A603B685B781A467B68DA603B685B881A467B689A613B689B881A467B68DA613B689B791A4612
S32D0000FA007B681A623B68DB791A467B685A623B68DA687B681A653B681B7A1A467B681A603B685B7A1A467B688C
S32D0000FA285A6000BF0C37BD4680BC704780B483B000AF78607B6818460C37BD4680BC704780B582B000AF7860A8
S32D0000FA5039607B68012B07D13B684FF6FF72934202D10348FFF7E6FF00BF0837BD4680BDE019002080B500AFA6
S32D0000FA784FF6FF710120FFF7E3FF80BD80B582B000AF7860B84B4FF48072DA60B74B4FF480729A64B54B4FF49D
S32D0000FAA080721A64B34B4FF480725A64B14B4FF48072DA60B04B5B69AF4A43F008035361AE4B5B69AD4A43F4D7
S32D0000FAC880235361AB4B5B69AA4A43F480335361A84B5B69A74A43F400335361A54B1B68A44A43F00803136095
S32D0000FAF0A24B5B69A14A43F0080353619E4B1B689D4A43F0080313609A4B4FF480725A62984B4FF480721A62EC
S32D0000FB18954B4FF480721A61934B4FF480725A61914B4FF480729A618F4B4FF48072DA618D4B4FF480721A6381
S32D0000FB408B4B4FF480725A63894B4FF480729A63874B4FF48072DA63854B4FF480721A64834B4FF480725A6441
S32D0000FB68814B4FF480729A647F4B4FF48072DA64814B4FF480721A607F4B4FF480729A607D4B4FF48072DA6088
S32D0000FB907B4B4FF480721A61784B5B69774A43F440735361744B5B69734A43F47F2343F0F0035361734B5B6976
S32D0000FBB8724A43F01D035361E221786800F040FD1D21786800F0E2FD0221786800F0DEFD0421786800F0DAFDC5
S32D0000FBE0E021786800F030FD0121786800F0D2FD6420FFF7A9F9E021786800F025FD0321786800F0C7FD01214F
S32D0000FC08786800F01DFD0120FFF79AF9E621786800F016FD0121786800F0B8FDA021786800F0B4FDFF21786867
S32D0000FC3000F0B0FDB021786800F006FD1C21786800F0A8FD0F21786800F0A4FD0121786800F0A0FD3F21786843
S32D0000FC5800F09CFD0021786800F098FDEF21786800F094FD0021786800F090FDB421786800F0E6FC01217868F7
S32D0000FC8000F088FD9921786800F084FD0021786800F080FD4521786800F07CFD0221786800F078FD0021786850
S32D0000FCA800F074FD0021786800F070FD0021786800F06CFDB621786800F0C2FC0121786800F064FD0921786853
S32D0000FCD000F060FD0021786800F05CFD0E21786800F058FD0221786800F054FD0021786800F050FD0021786898
S32D0000FCF800F04CFDBA21786800F0A2FC0F21786800F044FD6420FFF71BF93A21786800F097FC6021786800F07E
S32D0000FD2039FD2A21786800F08FFC0021786800F031FD0021786800F02DFD0121786800F029FD3F21786800F057
S32D0000FD4825FD2B21786800F07BFC0021786800F01DFD0021786800F019FD0021786800F015FDEF2178680BE0E8
S32D0000FD7000B0044000A0044080F00F4040F00F4000C00440C0F00F4000F004FD3621786800F05AFC00217868DD
S32D0000FD9800F0FCFCF021786800F052FC0421786800F0F4FCB821786800F04AFC0F21786800F0ECFC0121786868
S32D0000FDC000F0E8FC314B1B68304A43F0080313606420FFF7B9F83621786800F035FC0021786800F0D7FCF021BF
S32D0000FDE8786800F02DFC0421786800F0CFFC0121786800F0BCF91E226F21786800F082F8AF225621786800F05B
S32D0000FE10DBF80021786800F0FFF9012301221C49786800F020FA2921786800F00DFC6420FFF78AF8BE21786894
S32D0000FE3800F006FC0E21786800F0A8FCF021786800F0A4FC0121786800F0A0FC0021786800F09CFC002178686E
S32D0000FE6000F098FC0F21786800F094FC786800F01DFA0121786800F0CFF90021786800F0A4F900BF0837BD4630
S32D0000FE8880BD00BF40F00F405C1C020080B582B000AF78607B680022DA617B6801221A627B680E225A607B68F7
S32D0000FEB01A229A607B6800225A617B6800229A617B684FF4A072DA607B68F0221A617B6800221A70786801F0EC
S32D0000FED885F87B6818460837BD4680BD80B582B000AF7860064B1B78002B05D1044B01221A707868FFF7C2FD5B
S32D0000FF0000BF0837BD4680BD281A002080B58AB002AFF860B9607A607E23009362237A68B968F86800F0BEFD01
S32D0000FF2840F24E733B610023FB61FA693B699A4240DA0023BB61214AFB6913441B781A46BB69934232DAFB69DF
S32D0000FF5001331C4AD35C002B06D1FF23FB75FF23BB75FF237B7512E0FB690133154AD35C012B06D1D423FB7540
S32D0000FF780023BB7526237B7505E0B523FB75BA23BB75B0237B757B7DBA7DF97DF86800F0C9F80246FB68DA6136
S32D0000FFA0F86801F01FF8F86800F058FFBB690133BB61C4E7FB690233FB61BAE700BF2037BD4680BD04000020F5
S32D0000FFC880B58AB002AFF860B9607A602723009395237A68B968F86800F060FD40F2E6333B610023FB61FA6992
S32D0000FFF03B699A4240DA0023BB61214AFB6913441B781A46BB69934232DAFB6901331C4AD35C002B06D1FF239B
S32D00010018FB75FF23BB75FF237B7512E0FB690133154AD35C012B06D10023FB750023BB7500237B7505E0D423F5
S32D00010040FB750023BB7526237B757B7DBA7DF97DF86800F06BF80246FB68DA61F86800F0C1FFF86800F0FAFEFF
S32D00010068BB690133BB61C4E7FB690233FB61BAE700BF2037BD4680BD5407002080B485B000AF78600B46FB7037
S32D00010090FB78062B29D801A252F823F0C1000100B9000100C7000100CF000100D7000100DD000100E5000100EC
S32D000100B86FF07F43FB6014E00023FB6011E04FF47F03FB600DE04FF47F43FB6009E0FF23FB6006E04FF4190322
S32D000100E0FB6002E0044BFB6000BFFB6818461437BD4680BC704700BF9999990080B584B000AF786039603B6893
S32D000101081B0CFB733B681B0ABB733B687B737B7BBA7BF97B786800F005F8034618461037BD4680BD80B487B0A7
S32D0001013000AF7860084611461A460346FB700B46BB7013467B70FB789B08DBB27B61BB789B08DBB23B617B782F
S32D000101589B08DBB2FB607B691A033B699B011A43FB68134318461C37BD4680BC704780B582B000AF78600B46B0
S32D00010180FB70FB7819467868FFF77CFF03461946786800F004F800BF0837BD4680BD80B582B000AF7860396089
S32D000101A839687868FFF7A6FF02467B681A62786800F014FF786800F081FB00BF0837BD4680BD80B582B000AFE2
S32D000101D078600B46FB70FB7819467868FFF752FF03461946786800F004F800BF0837BD4680BD80B582B000AFAB
S32D000101F87860396039687868FFF77CFF02467B681A62786800F0EAFE00BF0837BD4680BD80B582B000AF7860EA
S32D000102200B46FB70FB7819467868FFF72BFF03461946786800F004F800BF0837BD4680BD80B582B000AF786081
S32D00010248396039687868FFF755FF02467B68DA61786800F0C3FE00BF0837BD4680BD80B586B000AFF860B96063
S32D000102707A603B6000237B617B69BA6813441B78002B0FD07B69BA6813441B783A687968F86800F0A1FC7B68AE
S32D000102980C337B607B6901337B61E9E700BF1837BD4680BD80B582B000AF7860FDF768F967210120FDF7D3F860
S32D000102C000210220FDF7CFF8A0210320FDF7CBF850210420FDF7C7F820210520FDF7C3F820210620FDF7BFF807
S32D000102E877210720FDF7BBF800210820FDF7B7F800210920FDF7B3F800210A20FDF7AFF804210B20FDF7ABF8DF
S32D000103107B684FF0FF32DA637B684FF0FF321A6400BF0837BD4680BD80B586B000AFF860B9607A600020FDF7A6
S32D00010338B8F80346FB75FB7D03F00203002B00F0CE80FDF7CBF8E020FDF77CF80220FEF7F7FDFDF7D1F801204C
S32D00010360FEF7F2FDFDF7BEF8A520FDF76FF80120FEF7EAFDFDF791F803469BB21B02BB82FDF78BF803469AB24A
S32D00010388BB8A1343BB82FDF784F803469BB21B027B82FDF77EF803469AB27B8A13437B82BB8A1B09BB827B8A4C
S32D000103B01B097B82FDF7A4F8FB68DB6BB3F1FF3F34D1FB681B6CB3F1FF3F2FD1BA8AFB68DA637A8AFB681A6448
S32D000103D87B8AC3F57F630F337B82BB8A184608F0E3FE49A3D3E9002308F048FF02460B461046194609F024FA2D
S32D000104000246BB681A607B8A184608F0D1FE42A3D3E9002308F036FF02460B461046194609F012FA02467B684F
S32D000104281A605AE0FB68DA6BBB8AD31A1946F86800F074F80346632B0CDCFB681A6C7B8AD31A1946F86800F0B3
S32D0001045069F80346632B01DC012300E00023002B2FD0BA8AFB68DA637A8AFB681A647B8AC3F57F630F337B8270
S32D00010478BB8A184608F098FE23A3D3E9002308F0FDFE02460B461046194609F0D9F90246BB681A607B8A18462B
S32D000104A008F086FE1CA3D3E9002308F0EBFE02460B461046194609F0C7F902467B681A600FE0BB68164A1A609A
S32D000104C87B68154A1A60FB684FF0FF32DA63FB684FF0FF321A64002310E001230EE0BB680D4A1A607B680C4A96
S32D000104F01A60FB684FF0FF32DA63FB684FF0FF321A64002318461837BD4680BDAFF30080144001144001B43F33
S32D000105181EE0011EE001AE3F000080BF80B483B000AF786039603B68002B02DA3B685B423B603B6818460C373A
S32D00010540BD4680BC704780B586B000AFF860B9607A603B607A6813461B0113447B613A6813465B0013449B00C4
S32D000105683B617B693A69B968F868FFF778FE00BF1837BD4680BD80B584B000AF786039600023FB60786800F02F
S32D000105905CFAFB683A6813441B78002B12D07B6859697B689869FB683A6813441B780246786800F0F6FA78688A
S32D000105B800F05BFAFB680133FB60E6E700BF1037BD4680BD80B590B000AF7860396007F10C033A6806491846DF
S32D000105E00BF090FD07F10C0319467868FFF7C7FF00BF4037BD4680BD681C020080B582B000AF786039607868FF
S32D0001060800F01FFA39687868FFF7B5FF786800F003FA00BF0837BD4680BD80B582B000AF78603960786800F02D
S32D000106300CFA39687868FFF7C9FF786800F0F0F900BF0837BD4680BD80B483B000AF78600B46FB704D4B1B689A
S32D000106584C4A23F0080313604B4B1B684A4A23F480231360484B1B68474A43F480331360454B1B68444A23F4B6
S32D0001068040731360414B1B68404A23F4435323F0300313603E4B1A68FB785B0203F400733B4913430B603A4B17
S32D000106A81A68FB785B101B0203F48073364913430B60344B1A68FB789B101B0103F01003304913430B602F4B87
S32D000106D01A68FB78DB105B0103F020032B4913430B602A4B1A68FB781B119B0103F04003264913430B60254B6C
S32D000106F81A68FB785B11DB01DBB2224913430B60204B1A68FB789B111B0303F480531D4913430B601B4B1A68DA
S32D0001072097F90330DB115BB25B0303F40053174913430B60164B1B68154A23F400331360134B1B68124A43F4B1
S32D00010748003313600F4B1B680E4A43F0080313600D4B1B680C4A43F440731360094B1B68084A43F4435343F03F
S32D0001077030031360064B1B68054A43F48023136000BF0C37BD4680BC704700BF80F00F4040F00F4080B483B0E8
S32D0001079800AF78600B46FB70464B1B68454A23F008031360444B1B68434A43F480331360414B1B68404A43F4EF
S32D000107C0802313603E4B1B683D4A23F4407313603A4B1B68394A23F4435323F030031360374B1A68FB785B025F
S32D000107E803F40073344913430B60334B1A68FB785B101B0203F480732F4913430B602D4B1A68FB789B101B01E8
S32D0001081003F01003294913430B60284B1A68FB78DB105B0103F02003244913430B60234B1A68FB781B119B0162
S32D0001083803F040031F4913430B601E4B1A68FB785B11DB01DBB21B4913430B60194B1A68FB789B111B0303F4C0
S32D000108608053164913430B60144B1A6897F90330DB115BB25B0303F40053104913430B600F4B1B680E4A23F4CB
S32D00010888003313600C4B1B680B4A43F400331360084B1B68074A43F008031360064B1B68054A23F48023136067
S32D000108B000BF0C37BD4680BC704700BF80F00F4040F00F4080B586B000AF78607B6800225A617B6800229A6172
S32D000108D87B681B6AFB60FB68FB72FB681B0ABB72FB681B0CDBB203F003037B722A217868FFF7A6FE00217868E6
S32D00010900FFF748FF00217868FFF744FF01217868FFF740FF3F217868FFF73CFF2B217868FFF792FE00217868F6
S32D00010928FFF734FF00217868FFF730FF00217868FFF72CFFEF217868FFF728FF2C217868FFF77EFE314B1B6884
S32D00010950304A23F4407313602F4B1B682E4A23F47F2323F0F00313602C4B1B682B4A23F01D031360274B1A6811
S32D000109787B681B6B254913430B60254B1A687B685B6B234913430B60224B1A687B689B6B204913430B601E4B85
S32D000109A01B681D4A23F0080313601A4B1B68194A43F48023136000237B617B69EF2B19D800233B613B69B3F51C
S32D000109C8A07F0FD2114B1B68104A23F4003313600E4B1B680D4A43F4003313603B6901333B61EBE77B6901339C
S32D000109F07B61E2E7084B1B68074A43F008031360044B1B68034A23F48023136000BF1837BD4680BD40F00F4042
S32D00010A1880F00F40C0F00F4080B483B000AF78607B689B69002B07DD7B685B695A1C7B685A617B6800229A6152
S32D00010A4000BF0C37BD4680BC704780B582B000AF78607B685A697B685B689A4205DB7B6800225A617868FFF703
S32D00010A682DFF00BF0837BD4680BD80B582B000AF78607B689B695A1C7B689A617B689A697B689B689A4205D14E
S32D00010A907868FFF7C5FF7868FFF7D7FF00BF0837BD4680BD80B588B000AFF860B9607A603B60FB681B78022B8E
S32D00010AB803D0FB681B78032B11D17B68FB61BA6AFB691344013BBB61FB68DA68BB68D31A3B613B683A69D31A3C
S32D00010AE001337B610DE0BB68FB613A68FB691344013BBB617B687B61BA6A7B691344013B3B612A21F868FFF71F
S32D00010B089FFDFB691B0ADBB203F00F03DBB21946F868FFF73BFEFB69DBB21946F868FFF735FEBB691B0ADBB2DD
S32D00010B3003F00F03DBB21946F868FFF72BFEBB69DBB21946F868FFF725FE2B21F868FFF77BFD7B691B0ADBB2ED
S32D00010B5803F00F03DBB21946F868FFF717FE7B69DBB21946F868FFF711FE3B691B0ADBB203F00F03DBB2194696
S32D00010B80F868FFF707FE3B69DBB21946F868FFF701FE2C21F868FFF757FD00BF2037BD4680BD80B584B000AFA1
S32D00010BA8F860B9607A60FB707A6813465B0013449B00991CBA6813461B011344DA1CFB78F86800F005F800BFC8
S32D00010BD01037BD4680BD000080B58EB002AFF860B9607A60FB70FB780A2B06D1F868FFF72CFFF868FFF714FF2C
S32D00010BF8F2E0FB787D2B02D8FB781F2B01D82023FB70FB78203BFB70112300930C237A68B968F868FFF742FFFA
S32D00010C20FA7813469B0013446F4AD35C3B75FA7813469B00134401336B4AD35C7B75FA7813469B001344023399
S32D00010C48674AD35CBB75FA7813469B0013440333634AD35CFB75FA7813469B00134404335F4AD35C3B7600238E
S32D00010C70BB62BB6A062B00F3A180F86800F050F9F86800F0B3F8002387F82F3000237B627B6A042B35DC07F11C
S32D00010C9814027B6A13441B7803F00103002B14BF01230023FB76FB7E002B11D097F82F3083F00103DBB2002BF9
S32D00010CC003D0F86800F0CAF802E0F86800F08EF8F86800F08BF80DE097F82F30002B03D0F86800F01DF902E074
S32D00010CE8F86800F07FF8F86800F07CF8FB7E87F82F307B6A01337B62C6E797F82F30002B03D0F86800F008F91B
S32D00010D1002E0F86800F06AF8F86800F067F8002387F82F3000233B623B6A042B42DC07F114023B6A13441B7821
S32D00010D3803F00103002B14BF01230023BB76BB7E002B11D097F82F3083F00103DBB2002B03D0F86800F07EF824
S32D00010D6002E0F86800F042F8F86800F03FF80DE097F82F30002B03D0F86800F0D1F802E0F86800F033F8F868C2
S32D00010D8800F030F8BB7E87F82F3007F114023B6A13441B785B08D9B207F114023B6A13440A461A703B6A0133C5
S32D00010DB03B62B9E7BB6A0133BB625AE7F86800F0AFF8002387F82F300123FB61FB69232B06DCF86800F00AF8C2
S32D00010DD8FB690133FB61F5E73037BD4680BD00BF3C0B002080B483B000AF7860174B1B68164A43F480331360BF
S32D00010E00154B1B68144A23F008031360114B1B68104A43F4802313600E4B1B680D4A23F4003313600B4B1B68A2
S32D00010E280A4A43F400331360094B1B68084A43F008031360054B1B68044A23F48023136000BF0C37BD4680BC01
S32D00010E50704700BF40F00F4080F00F4080B483B000AF78602B4B1B682A4A43F480331360294B1B68284A23F08B
S32D00010E7808031360254B1B68244A43F480231360224B1B68214A23F440731360204B1B681F4A23F47F2323F064
S32D00010EA0F00313601D4B1B681C4A23F01D031360184B1A687B685B6A164913430B60164B1A687B689B6A1449F1
S32D00010EC813430B60134B1A687B68DB6A114913430B600E4B1B680D4A23F4003313600B4B1B680A4A43F4003390
S32D00010EF01360094B1B68084A43F008031360054B1B68044A23F48023136000BF0C37BD4680BC704740F00F40C1
S32D00010F1880F00F40C0F00F4080B483B000AF78602B4B1B682A4A43F480331360294B1B68284A23F0080313603A
S32D00010F40254B1B68244A43F480231360224B1B68214A23F440731360204B1B681F4A23F47F2323F0F0031360B3
S32D00010F681D4B1B681C4A23F01D031360184B1A687B681B6B164913430B60164B1A687B685B6B144913430B604B
S32D00010F90134B1A687B689B6B114913430B600E4B1B680D4A23F4003313600B4B1B680A4A43F400331360094B00
S32D00010FB81B68084A43F008031360054B1B68044A23F48023136000BF0C37BD4680BC704740F00F4080F00F4000
S32D00010FE0C0F00F4080B485B000AF78607B681B6AFB60FB68FB72FB681B0ABB72FB681B0CDBB203F003037B72AE
S32D000110087B6800225A627B6800229A627B680022DA627B6800221A637B6800225A637B6800229A637B681A6B08
S32D00011030FB7A5B0203F400731A437B681A637B681A6BFB7A5B101B0203F480731A437B681A637B685A6BFB7A6F
S32D000110589B101B0103F010031A437B685A637B685A6BFB7ADB105B0103F020031A437B685A637B685A6BFB7A0B
S32D000110801B119B0103F040031A437B685A637B685A6BFB7A5B11DB01DBB21A437B685A637B685A6BFB7A9B118E
S32D000110A81B0303F480531A437B685A637B685A6B97F90B30DB115BB25B0303F400531A437B685A637B685A6B7B
S32D000110D0BB7A9B0303F480431A437B685A637B685A6BBB7A5B10DB039BB21A437B685A637B685A6BBB7A9B106F
S32D000110F81B0403F480331A437B685A637B685A6BBB7ADB105B0403F400331A437B685A637B685A6BBB7A1B11AC
S32D000111209B0403F480231A437B685A637B685A6BBB7A5B11DB0403F400231A437B685A637B689A6BBB7A9B1162
S32D0001114803F001031A437B689A637B689A6B97F90A30DB115BB29B0003F004031A437B689A637B689A6B7B7AEA
S32D00011170DB0003F008031A437B689A637B689A6B7B7A5B101B0103F010031A437B689A637B68DB69FB60FB68AE
S32D00011198FB72FB681B0ABB72FB681B0CDBB203F003037B727B685A6AFB7A5B0203F400731A437B685A627B6847
S32D000111C05A6AFB7A5B101B0203F480731A437B685A627B689A6AFB7A9B101B0103F010031A437B689A627B6811
S32D000111E89A6AFB7ADB105B0103F020031A437B689A627B689A6AFB7A1B119B0103F040031A437B689A627B684D
S32D000112109A6AFB7A5B11DB01DBB21A437B689A627B689A6AFB7A9B111B0303F480531A437B689A627B689A6A12
S32D0001123897F90B30DB115BB25B0303F400531A437B689A627B689A6ABB7A9B0303F480431A437B689A627B684C
S32D000112609A6ABB7A5B10DB039BB21A437B689A627B689A6ABB7A9B101B0403F480331A437B689A627B689A6AA1
S32D00011288BB7ADB105B0403F400331A437B689A627B689A6ABB7A1B119B0403F480231A437B689A627B689A6AAE
S32D000112B0BB7A5B11DB0403F400231A437B689A627B68DA6ABB7A9B1103F001031A437B68DA627B68DA6A97F907
S32D000112D80A30DB115BB29B0003F004031A437B68DA627B68DA6A7B7ADB0003F008031A437B68DA627B68DA6A0B
S32D000113007B7A5B101B0103F010031A437B68DA6200BF1437BD4680BC7047000080B582B000AF786039607B6856
S32D00011328012B07D13B684FF6FF72934202D10348FEF7ACFD00BF0837BD4680BDE419002080B500AF4FF6FF71B4
S32D000113500120FFF7E3FF80BD80B582B000AF7860164B03F580535B6B144A43F0400302F580525363124B4FF465
S32D0001137800725A62104B4FF400721A620F4B14225A700E4B1B7ADBB20C4A43F00103DBB213720A4B80229A7017
S32D000113A002212B20FBF7E8FF3D212A20FBF7E4FF7B6818460837BD4680BD00BF0070044000C00440006006407D
S32D000113C880B582B000AF786039607B68012B07D13B684FF6FF72934202D10348FFF7B8FF00BF0837BD4680BD51
S32D000113F02C1A002080B500AF4FF6FF710120FFF7E3FF80BD80B582B000AF78600B46FB707B68FA7811461846E5
S32D00011418FEF7D2F87B6818460837BD4680BD000080B582B000AF786039607B68012B08D13B684FF6FF72934289
S32D0001144003D120210348FFF7DDFF00BF0837BD4680BD00BF301A002080B500AF4FF6FF710120FFF7E1FF80BD17
S32D0001146880B483B000AF78607B6800221A707B6818460C37BD4680BC7047000080B483B000AF78603960044A89
S32D000114903B68136000BF0C37BD4680BC704700BF341A002080B582B000AF3248FCF776F90346FB71304AFB795D
S32D000114B81370304B01221A702F4B1B78022B33D0022B4FDC002B02D0012B14D04AE0FB79FF2B44D1284B012245
S32D000114E01A70284B00221A70264B1B785A1CD1B2244A11701946244AFB79535433E0214B1B785A1CD1B21F4AEC
S32D00011508117019461E4AFB7953541C4B1B780D2B27D11C4B1B68194A1278114618489847154B02221A701CE0B0
S32D00011530FB79FF2B10D1124B01221A70114B00221A70104B1B785A1CD1B20E4A117019460D4AFB79535409E081
S32D000115580A4B00221A70084B00221A7002E000BF00E000BF00BF0837BD4680BD00A006404B1A00204A1A0020F7
S32D00011580491A0020481A0020381A0020341A002080B582B000AF78607B681846FFF764FF7B6811491846FFF73E
S32D000115A86DFF7B684FF0FF325A600E4B4FF000021A600D4B4FF000021A600C4B4FF000021A600B4B00221A6070
S32D000115D00A4B00221A700A4B00221A707B6818460837BD4680BD00BF05160100581A00205C1A0020601A00208D
S32D000115F8641A0020681A0020691A002080B582B000AF78600B46FB70424B1B78002B7DD07B6801331B781B02D8
S32D000116207A68023212781344184608F017FA03463B49184608F01AFB03463A49184608F057F903461A46384B67
S32D000116481A607B6803331B781B027A68043212781344184608F0FEF903462F49184608F001FB03462D491846BA
S32D0001167008F03EF903461A462C4B1A607B6805331B781B027A68063212781344184608F0E5F903462249184676
S32D0001169808F0E8FA03462149184608F025F903461A46214B1A607B6807331B781A067B6808331B781B041A4396
S32D000116C07B6809331B781B0213437A680A32127813431A46174B1A607B68DA7A164B1A707B680C331B78AA2BF0
S32D000116E80CBF01230023DAB2124B1A70124B01221A70104B1B78002B08D0104800F052F80F4B1B680E4A23F475
S32D000117100053136000BF0837BD4680BD541A0020000020410000C844581A00205C1A0020601A0020641A00204B
S32D00011738681A0020691A00206A1A00206C1A0020C0F00F4080B582B000AF786039607B68012B07D13B684FF69E
S32D00011760FF72934202D10348FFF712FF00BF0837BD4680BD4C1A002080B500AF4FF6FF710120FFF7E3FF80BD5C
S32D0001178880B483B000AF7860054B00221A60044B00225A607B6818460C37BD4680BC70476C1A002080B584B0A4
S32D000117B000AF7860154B1B68002B21D00023FB60124B5B68FA689A4214DA114AFB6852F82330002B0AD00E4A02
S32D000117D8FB6852F823301846FCF723FA03461A460A4B1A70FB680133FB60E5E7054B00225A60044B00221A6017
S32D00011800044B1B7818461037BD4680BD6C1A0020781A0020741A002080B582B000AF786039607B68012B07D17E
S32D000118283B684FF6FF72934202D10348FFF7A8FF00BF0837BD4680BD6C1A002080B500AF4FF6FF710120FFF714
S32D00011850E3FF80BD80B483B000AF78600A4B03F580531B6B084A43F0010302F580521363064B5B68054A43F058
S32D000118783203536000BF0C37BD4680BC704700BF0070044000000A4000F0A2B9012838BF012010B504462046A3
S32D000118A009F0EEFC00B110BD00F0AAFF08B18047F5E7042000F004FA024B034A0349036000F04CFF201D0200EE
S32D000118C8A91B0100FC1C0200704700BF704700BF0868B0F1804F08B519D2904212D9B0EB420F4FEA42030DD298
S32D000118F0B3F1804F08D36FF040430B604FF08040BDE80840FFF7C6BF0B601846BDE808400130FFF7BFBF014823
S32D0001191801F0D0F8901C02002DE9F04F83B04768DDF830B081469A46ABEB02033B44019359F8083B994501EB9A
S32D0001194002060D4614BF82680F2201A90446FFF7C3FFBF1B80462DB1012D216829D02A4609F0D2FFBAF1000F61
S32D000119680BD0BBF1000F08D0BBF1010F08EB050022D051465A4609F0C3FF57B123685D44012F08EB050003EB00
S32D00011990060111D03A4609F0B7FF2068814501D000F01AF9019BC4F80080A36003B0BDE8F08F0B780370D5E78B
S32D000119B89B5D08F80530ECE79AF8003008F80530DBE700BF034610B5044653F8080B984201D000F0FDF82046DC
S32D000119E010BD00BFF0B54768044650F8085B854218BFA36807EB020608BF0F239E4283B00DD832B1012A05EB71
S32D00011A08070011D009F07CFF2568666000232046AB5503B0F0BD00920B46002239462046FFF77AFF2568F0E75A
S32D00011A300B78EB552568ECE738B5044608460D460AF0FEFC61686FF040435B1A834205D3024629462046FFF7C8
S32D00011A58C5FF38BD014801F02DF800BFA81C02000068704770B5054682B011B3541A0F2C0E4601940BD8012C9B
S32D00011A80006822D10B780370019C28686C600023035502B070BD002201A9FFF71DFF019B2860AB6022463146A7
S32D00011AA809F02EFF019C28686C600023035502B070BD4AB90068144600236C60035502B070BD002CDED0E9E701
S32D00011AD0014800F0DBFF00BFC01C020000F1080210B50260D1E9001204460A444FF00003FFF7BCFF204610BD8B
S32D00011AF870B5054682B011B3541A0F2C0E4601940BD8012C006822D10B780370019C28686C600023035502B040
S32D00011B2070BD002201A9FFF7D7FE019B2860AB602246314609F0E8FE019C28686C600023035502B070BD4AB98F
S32D00011B480068144600236C60035502B070BD002CDED0E9E7014800F095FF00BFC01C020038B500F1080304463F
S32D00011B7003600D4659B108460AF062FC4FF000032A1829462046FFF7B7FF204638BD204601224FF00003294646
S32D00011B98FFF7AEFF204638BD00487047EC1C020010B5034B0360044600F010FA204610BD201D020010B5054BD6
S32D00011BC00360044600F006FA20460421FFF760FE204610BD201D020009F05ABB20494B6830B5A0F108046BB33E
S32D00011BE850F8085C04EB050E734527D821D05A6801F1040C32B90FE0516803F1040C21B313460A469645F7D3FB
S32D00011C1004BFDEE900215960DCF8003008BFAD181A6899188C4211D05B6840F8043CDCF8003040F8085C5C6038
S32D00011C3830BD1A685B682A4440F8082C40F8043C4C6030BD2A441A6030BD5B681A6899188C42E5D1F6E700BF75
S32D00011C60E01A0020154900F108034868082B38BF0823A0B1073323F00703043102E0011D4068C8B1026893429F
S32D00011C88F9D810B4D41A072C06D84368026010BC0B60083070477047C218D0F804C0C2F804C0C450086810BC7B
S32D00011CB0036008300A607047704700BFE01A002010B500F18004204609F0DAFA034630B180220021184609F008
S32D00011CD82DFF803010BD2046FFF7C0FF03460028F2D100F0C1FC00BF064A93688038984205D9D2681344984253
S32D00011D0001D2FFF76BBF09F0C3BA00BFE01A002038B5084C4FF41E652846E56009F0B0FAA06020B10023C0E978
S32D00011D280053606038BDE060606038BDE01A00201EB400F08FF81EBC08F020FEF0B50278472A83B00C461D46C4
S32D00011D5019D00023264E0193336830469B68984778B1019B1B68019302272368314620461E6901AA0123B047A3
S32D00011D7818BB0746384603B0F0BD0127F1E743784E2BE2D18378552BDFD1C378432BDCD10379462B1BD0037982
S32D00011DA0432BD6D143792B2BD3D183792B2BD0D1C379012BCDD809D050F8206C58300190CAE7019B2B6038462D
S32D00011DC803B0F0BD50F8200C50F8786CF3E743794F2BE0D18379522BDDD1C379002BDAD1024E0193B4E700BFB4
S32D00011DF0481D0200401D020010B5044600F0FEF8224612F82039472B04D0836823BB8260012010BD63784E2B0B
S32D00011E18F7D1A378552BF4D1E378432BF1D12379432BEED163792B2BEBD1A3792B2BE8D1E379012BE5D854F875
S32D00011E40043C0133012B44F8043CE1D1836844F8083C8260012010BD00F00AFC08B500F0CDF8836883B393F856
S32D00011E682020472A04D00022826003F1200008BD93F821204E2AF6D193F82220552AF2D193F82320432AEED1D5
S32D00011E9093F82420432AEAD193F825202B2AE6D193F826202B2AE2D193F82720012ADED8DA69013ADA61002AE1
S32D00011EB8DBD19969816000229A6103F1200008BD00F0D2FB38B5044600F094F82246056812F82039472B03D089
S32D00011EE085BB0260284638BD63784E2BF8D1A378552BF5D1E378432BF2D12379432BEFD163792B2BECD1A379EF
S32D00011F082B2BE9D1E379012BE6D854F80C3C002B11DB013344F80C3C4368013B4360954218BF44F8105C656A42
S32D00011F3018BF0260204608F067F9284638BDC3F10103EBE700F094FB08B500F053F803687BB393F82020472A52
S32D00011F5807D00022026003F12000BDE8084008F051B993F821204E2AF3D193F82220552AEFD193F82320432AAD
S32D00011F80EBD193F82420432AE7D193F825202B2AE3D193F826202B2ADFD193F82720012ADBD85A69002A05DB56
S32D00011FA8013A08D0511C0ED05A6108BD0132FBD119690160F8E71A69026003F12000BDE8084008F01FB900F0C5
S32D00011FD04FFB00BF704700BF704700BF004870472C1D020010B504210446FFF751FC204610BD00BF004870473B
S32D00011FF8F01A002000487047F01A0020502870B51DD0844600F00F000C2855D8DFE800F0074426071E5454546A
S32D00012020542A22071E00104650F8046B4EB10CF07004102C08BF11460E441CF0800F18BF36681E6070BD0332B4
S32D0001204822F0030050F8046B1E6070BD104650F8086BE7E7104630F9026BE3E7104630F8026BDFE70026104630
S32D00012070344610F8015B05F07F0E0EFA04FE15F0800F46EA0E0604F10704F2D11F2CCDD86D06CBD54FF0FF35C6
S32D0001209805FA04F42643C6E700261046344610F8015B05F07F0E0EFA04FE2D0646EA0E0604F10704F3D4B5E74C
S32D000120C008F056FEFF2808B5034619D003F07002302A084616D005D8202A09D1BDE8084008F043BE402A09D171
S32D000120E8BDE8084008F02ABE02D813F0600F03D008F03AFE502AFBD1002008BDBDE8084008F02CBEF8B50C46B4
S32D000121101546064608B108F015FE286014F8017BFF2F29D16860204610F8013B2B75FF2B33D0102300242B75C7
S32D00012138224610F8011B01F07F039340090644EA030402F10702F4D40444EC6010F8013B6B750024224610F852
S32D00012160011B01F07F0393401C430B0602F10702F5D404442C61F8BD31463846FFF7A2FF224601462B1D38462E
S32D00012188FFF73CFF0446204610F8013B2B75FF2BCBD10023EB60D9E72DE9F04F00F0030493B00023012C0893F5
S32D000121B08846174613D0022C08D13946404608F0ABFD40B9082013B0BDE8F08F002C00F0948008F0CDFD092023
S32D000121D813B0BDE8F08F0DF1300A10F00804CDF800A000F09D8044F0020202920C910C221946384608F032F8A5
S32D00012200384608F0A5FD83460028D6D0524601463846FFF77BFF394605469DF84400FFF751FF0DF12C090023F4
S32D000122280E901946CDF800900F22384607F0F0FF0B9B23F001035E1E109B9D4237D29DF8454000212046FFF73D
S32D0001225039FF2A46014609AB2046FFF7D3FE9DF84550044600212846FFF72CFF224601460AAB2846FFF7C6FEDF
S32D000122789DF84550044600212846FFF71FFF224601464B462846FFF7B9FE00240546224615F8011B01F07F0352
S32D000122A093401C430B0602F10702F5D40C9B099A1344B34219D9029BD80730D50024039400231946CDF800906C
S32D000122C838460D22089D07F0A3FF039BC8F830300B9BC8F82CB0C8E909540620C8F820306DE70A9A1344B34274
S32D000122F06ED8109BAB42A6D8DDE702073FF55DAF012302930DF1300A0023CDF800A00C2219463846CDF830805D
S32D0001231807F0A4FF70E7029B1A0752D500F0A4F90D6A23460D222146384607F071FF0C9B9D4202D002230293C6
S32D00012340E2E72346CDF800A021460C223846CDF8308007F087FFD8F830300393ABB3D8E90A4B0DF12C09002C39
S32D000123684EDB032500231A461946CDF800903846CDF82C8007F072FF002319460122CDF8009038460B9407F059
S32D0001239069FF002319460F22CDF80090384607F03BFF0B9A0399CDF8009002F001020A4300230B9238460F22B8
S32D000123B8194607F053FF022D1DD0072013B0BDE8F08F404606F0FCFB0B9B002B3FF4F1AE0D9A13440393002C4E
S32D000123E038D1002B3FF4E9AE029BDD073FF5E5AE029B1B0740F1238100240225B6E74046FFF7FAFC0720DEE6AF
S32D000124086FF040431B1B1E46524659463846FFF779FE9DF844003946FFF750FE0E9005460F9850F8263000EB52
S32D00012430860033B10246002352F8041F01330029FAD1C8E90A350423C8F83400C8F8303003258BE7109E039B02
S32D00012458013C2644002B3FF4ACAE029B002E00F0E28013F00803049300F0C980472388F800304E2388F80130BF
S32D00012480552388F80230432388F80330462388F804304F2388F80530522388F80630002388F807300023CDF8B9
S32D000124A818B005979B46CDF81CA00024224616F8011B01F07F039340080644EA030402F10702F4D41F2A05D816
S32D000124D04B0603D5012393405B421C43002530462A4610F8011B01F07F0393400F0645EA030502F10702F4D43C
S32D000124F81F2A05D8490603D5012393405B421D43002C37D039DCB8F1000F02D0049B002B50D06FF0404A0F9B25
S32D00012520AAEB040A53F82A30BBB1002D75D02E44BFE7A3005B420F9A0E991A444B46FFF761FD0B9949B1B8F134
S32D00012548000FEED008AB00224046FFF7F7FB0028E7D0029BDDF81CA0D907DDE9057B3FF5ABAE049B002B3FF497
S32D00012570FAAE002CBFF6F9AE00F088F84FF0010BD3E79DF84400FF2831D000F00703042B3FF61FAE01A252F87E
S32D0001259823F000BF33250100D3210100B725010033250100B1250100E3005B42BFE763005B42BCE76FF0404A35
S32D000125C00F9F089B0B93AAEB040A57F82A1007EB8A0719B90DE057F8041F51B139444B4600224046FFF7AEFBC6
S32D000125E80028F4D09DE70023A1E7029BDA075646DDE9057BDDF81CA03FF55EAE04E798F80730012B0CBF58F87F
S32D00012610203C08F15803089344E75B46059F002B3FF4CBAD029BDB073FF5C7ADE4E6DE073FF5C3AD029B13F0F0
S32D0001263808047FF4DDAE022594E6FFF743FC6DE608B5804708F090FBFFF73CFC08F08CFB0C460546FFF774FC89
S32D00012660013402D1284606F0BFFAFFF765FB00BF08B5034B1868BFF35B8FFFF7E5FF00BF200D002008B5804780
S32D00012688FFF7F2FF08B5034B1868BFF35B8FFFF7F5FF00BF1C0D0020024B1868BFF35B8F704700BF200D0020F7
S32D000126B0024B1868BFF35B8F704700BF1C0D0020012810B51AD8BFF35B8FA1F1280353E8002F013A43E80020AA
S32D000126D80028F8D1BFF35B8F5AB951F81C3C01F158040BB1204698472046BDE81040FFF7FBBA10BD51F8140C07
S32D00012700FFF7A2FF38B5002540E91E1240F8805C0446FFF7CDFF44F8700CFFF7C1FF43222B23472104F8552C82
S32D0001272804F8542C04F8533C04F8523C4E22552304F8581C04F8515C054904F8572C04F8563C44F86C0C44F8A5
S32D00012750501CA4F1800038BDC126010070B504460D461646FFF74AFC436801333246294643602046FFF7C6FF18
S32D000127780446012344F8283B204608F0EDF82046FFF7A0FBFFF770FF10B5FFF733FCD0E900420132426064B1B7
S32D000127A094F82020472A0AD0002202602034204608F0FAF82046FFF789FBFFF759FF94F821204E2AF0D194F80B
S32D000127C82220552AECD194F82320432AE8D194F82420432AE4D194F825202B2AE0D194F826202B2ADCD194F846
S32D000127F02720012AD8D8626952426261D6E700BF024B1868BFF35B8F704700BFFC1A002010B5034B0360044625
S32D0001281800F088F9204610BD1C1E020010B5054B0360044600F07EF920460C21FFF72CF8204610BD1C1E02006C
S32D0001284070B582B00446069E96420D4609D0A06804680696246A2946A44602B0BDE870406047194601920093F6
S32D0001286800F064F8DDE900320028ECD0062002B070BD00BF2DE9F04F0D4681B01946DDE90A7ADDE90C981C4607
S32D000128900646934600F04EF880B94F4527D0B06823460468CDE90C98CDE90A7AE4695A462946A44601B0BDE8DD
S32D000128B8F04F6047002DC8F8007088F804B00CDB3D44A9450CBF4FF006094FF0010988F80690002001B0BDE836
S32D000128E0F08F0235F9D1012388F80630F5E75146304600F01FF80028D1D088F805B0ECE72DE9F04106460F46C6
S32D0001290814461D4600F048F948B9B068016822468C692B463946A446BDE8F0416047BDE8F08100BF704700BF31
S32D0001293000207047814211D008B5406803782A2B0AD049680B782A2B08BF013109F00CFCB0FA80F0400908BD43
